{
  "contractName": "Billboard",
  "abi": [
    {
      "inputs": [],
      "stateMutability": "nonpayable",
      "type": "constructor"
    },
    {
      "inputs": [
        {
          "internalType": "string",
          "name": "nom",
          "type": "string"
        }
      ],
      "name": "invest",
      "outputs": [],
      "stateMutability": "payable",
      "type": "function",
      "payable": true
    },
    {
      "inputs": [],
      "name": "getDons",
      "outputs": [
        {
          "internalType": "uint256[]",
          "name": "amonts",
          "type": "uint256[]"
        },
        {
          "internalType": "string[]",
          "name": "user",
          "type": "string[]"
        }
      ],
      "stateMutability": "view",
      "type": "function",
      "constant": true
    }
  ],
  "bytecode": "0x608060405234801561001057600080fd5b50336000806101000a81548173ffffffffffffffffffffffffffffffffffffffff021916908373ffffffffffffffffffffffffffffffffffffffff1602179055506109d1806100606000396000f3fe6080604052600436106100295760003560e01c80630a8b78261461002e578063ad61363f1461004a575b600080fd5b61004860048036038101906100439190610588565b610076565b005b34801561005657600080fd5b5061005f6101ac565b60405161006d929190610710565b60405180910390f35b600160405180606001604052803373ffffffffffffffffffffffffffffffffffffffff16815260200134815260200183815250908060018154018082558091505060019003906000526020600020906003020160009091909190915060008201518160000160006101000a81548173ffffffffffffffffffffffffffffffffffffffff021916908373ffffffffffffffffffffffffffffffffffffffff16021790555060208201518160010155604082015181600201908051906020019061013f92919061047d565b50505060008054906101000a900473ffffffffffffffffffffffffffffffffffffffff1673ffffffffffffffffffffffffffffffffffffffff166108fc349081150290604051600060405180830381858888f193505050501580156101a8573d6000803e3d6000fd5b5050565b606080600060018054905067ffffffffffffffff8111156101f6577f4e487b7100000000000000000000000000000000000000000000000000000000600052604160045260246000fd5b6040519080825280602002602001820160405280156102245781602001602082028036833780820191505090505b509050600060018054905067ffffffffffffffff81111561026e577f4e487b7100000000000000000000000000000000000000000000000000000000600052604160045260246000fd5b6040519080825280602002602001820160405280156102a157816020015b606081526020019060019003908161028c5790505b50905060005b60018054905081101561047057600181815481106102ee577f4e487b7100000000000000000000000000000000000000000000000000000000600052603260045260246000fd5b906000526020600020906003020160010154838281518110610339577f4e487b7100000000000000000000000000000000000000000000000000000000600052603260045260246000fd5b6020026020010181815250506001818154811061037f577f4e487b7100000000000000000000000000000000000000000000000000000000600052603260045260246000fd5b9060005260206000209060030201600201805461039b90610882565b80601f01602080910402602001604051908101604052809291908181526020018280546103c790610882565b80156104145780601f106103e957610100808354040283529160200191610414565b820191906000526020600020905b8154815290600101906020018083116103f757829003601f168201915b5050505050828281518110610452577f4e487b7100000000000000000000000000000000000000000000000000000000600052603260045260246000fd5b60200260200101819052508080610468906108b4565b9150506102a7565b5081819350935050509091565b82805461048990610882565b90600052602060002090601f0160209004810192826104ab57600085556104f2565b82601f106104c457805160ff19168380011785556104f2565b828001600101855582156104f2579182015b828111156104f15782518255916020019190600101906104d6565b5b5090506104ff9190610503565b5090565b5b8082111561051c576000816000905550600101610504565b5090565b600061053361052e84610778565b610747565b90508281526020810184848401111561054b57600080fd5b610556848285610840565b509392505050565b600082601f83011261056f57600080fd5b813561057f848260208601610520565b91505092915050565b60006020828403121561059a57600080fd5b600082013567ffffffffffffffff8111156105b457600080fd5b6105c08482850161055e565b91505092915050565b60006105d583836106c8565b905092915050565b60006105e98383610701565b60208301905092915050565b6000610600826107c8565b61060a8185610803565b93508360208202850161061c856107a8565b8060005b85811015610658578484038952815161063985826105c9565b9450610644836107e9565b925060208a01995050600181019050610620565b50829750879550505050505092915050565b6000610675826107d3565b61067f8185610814565b935061068a836107b8565b8060005b838110156106bb5781516106a288826105dd565b97506106ad836107f6565b92505060018101905061068e565b5085935050505092915050565b60006106d3826107de565b6106dd8185610825565b93506106ed81856020860161084f565b6106f68161098a565b840191505092915050565b61070a81610836565b82525050565b6000604082019050818103600083015261072a818561066a565b9050818103602083015261073e81846105f5565b90509392505050565b6000604051905081810181811067ffffffffffffffff8211171561076e5761076d61095b565b5b8060405250919050565b600067ffffffffffffffff8211156107935761079261095b565b5b601f19601f8301169050602081019050919050565b6000819050602082019050919050565b6000819050602082019050919050565b600081519050919050565b600081519050919050565b600081519050919050565b6000602082019050919050565b6000602082019050919050565b600082825260208201905092915050565b600082825260208201905092915050565b600082825260208201905092915050565b6000819050919050565b82818337600083830152505050565b60005b8381101561086d578082015181840152602081019050610852565b8381111561087c576000848401525b50505050565b6000600282049050600182168061089a57607f821691505b602082108114156108ae576108ad61092c565b5b50919050565b60006108bf82610836565b91507fffffffffffffffffffffffffffffffffffffffffffffffffffffffffffffffff8214156108f2576108f16108fd565b5b600182019050919050565b7f4e487b7100000000000000000000000000000000000000000000000000000000600052601160045260246000fd5b7f4e487b7100000000000000000000000000000000000000000000000000000000600052602260045260246000fd5b7f4e487b7100000000000000000000000000000000000000000000000000000000600052604160045260246000fd5b6000601f19601f830116905091905056fea2646970667358221220fed9593ddb377b7837362d285d3d0e20ef52057333fd8f5f07106458fe21aea664736f6c63430008000033",
  "immutableReferences": {},
  "source": "pragma solidity >=0.7.0 <0.9.0;\n\ncontract Billboard{\n\n    struct Tips{\n        address userAddress;\n        uint  amont;\n        string user;\n    }\n\n    address payable admin;\n    Tips[] dons;\n\n    constructor()\n    {\n        admin = payable(msg.sender);\n    }\n\n    function invest(string memory nom) external payable{\n        dons.push(Tips(msg.sender, msg.value, nom));\n        admin.transfer(msg.value);\n\n    }\n\n    function getDons() external view returns( uint[] memory amonts, string[] memory user)\n    {\n        uint[] memory amontDons = new uint[](dons.length);\n        string[] memory userDons = new string[](dons.length);\n        for(uint i =0; i < dons.length; i++)\n        {\n            amontDons[i] = dons[i].amont;\n            userDons[i] = dons[i].user;\n        }\n        return(amontDons, userDons);\n\n    }\n\n\n}\n",
  "sourcePath": "/home/arthur/PhpstormProjects/ethereum/boardeum/contracts/Billboard.sol",
  "compiler": {
    "name": "solc",
    "version": "0.8.0+commit.c7dfd78e.Emscripten.clang"
  },
  "schemaVersion": "3.4.0",
  "updatedAt": "2021-04-27T11:56:40.866Z",
  "networkType": "ethereum",
  "devdoc": {
    "kind": "dev",
    "methods": {},
    "version": 1
  },
  "userdoc": {
    "kind": "user",
    "methods": {},
    "version": 1
  }
}